:0600000002006B020CB7C8
:03000B00020F3CA5
:03001300020D0AD1
:01001B0032B2
:03002300020C1FAD
:03002B000211BA05
:01003300329A
:03003B00020D5D56
:03004300020BE0CD
:01004B003282
:03005300020C6B31
:01005B003272
:030063000211B8CF
:03006600020DB1D7
:02006900E4733E
:0D006B0075812D120DBCE582600302006658
:100078007937E94400601B7A01901665782175A0EC
:1000880001E493F2A308B8000205A0D9F4DAF275E6
:02009800A0FFC7
:06009A00E478FFF6D8FD3A
:1000A0007800E84400600A799475A000E4F309D868
:1000B000FC788DE84400600C7901900094E4F0A392
:0400C000D8FCD9FA95
:0E00C4007808E4F608F608F608F6780C7600E0
:0200D200C20268
:0200D400C20365
:0300D600020066BF
:1000DA001203F07F00BF0500501EEF2427F582E4CB
:1000EA003401F583E0FE9000DC7402F08E82C007D2
:1000FA00120DC0D0070F80DD7F00BF0400501EEF35
:10010A002423F582E43401F583E0FE9000DC7401D7
:10011A00F08E82C007120DC0D0070F80DD7F00BFAE
:10012A000400501EEF2423F582E43401F583E0FE37
:10013A009000DD7401F08E82C007120EC7D0070F3F
:10014A0080DD7F00BF0500502B8F067D00BD0400B7
:10015A00501F8E04EC2C25E0FC8D03EB2CFC339510
:10016A00E0FBEC2494F582EB3400F583E4F00D8097
:10017A00DC0F80D07F00BF100050578F057E00C073
:10018A0007C005C00690000312111AAD82AE83158E
:10019A00811581ED24A8FDEE3400FE8D828E8374D4
:1001AA000AF08D828E83A3F08D828E83A3A3F07DC5
:1001BA00A87E007C007B004304308D828E838CF005
:1001CA00EB1211BC900001E4F5F0120FF9D0070F01
:1001DA0080A4227F00BF0400400122EF2423F5827D
:1001EA00E43401F583E0FE9000DDE4F08E82C0077E
:1001FA00120EC7D0078F128F057C00BC0500400382
:10020A000203C7EC2427F582E43401F583E0F58282
:10021A00C007C005C004120E77AB82D004D005D047
:10022A00079000D8EBB40100E433F0E51275F0054D
:10023A00A4FB8C02EA2BF83395E0F9E82494F582C2
:10024A00E93400F583E0F99000D8E0F8E9B5000355
:10025A000203A0E8700302030BEA2BF83395E0F9D6
:10026A00E8242CF582E93401F583E0F582C007C061
:10027A0005C004120488D004D005D007BC0400408D
:10028A00030203A0C005A8127900E828F510E93393
:10029A00F511E5102510F510E51133F5118C017DE6
:1002AA0000E92510F9ED3511FDC007C004C001C0F1
:1002BA000590000312111AA982AD8315811581D008
:1002CA0004E924A8F9ED3400FD89828D837464F071
:1002DA0089828D83A3F089828D83A3A3F079A8787C
:1002EA00007D007E00430530898288838DF0EEC050
:1002FA0005C0041211BCD004D005D007D0050203F2
:10030A00A0EA2BFB3395E0FEEB242CF582EE3401B8
:10031A00F583E0F582C007C005C004120546D00483
:10032A00D005D007BC0400506DAB127E00EB2BFB4E
:10033A00EE33FEEB2BFBEE33FE8C017A00E92BFB4E
:10034A00EA3EFEC007C005C004C003C00690000311
:10035A0012111AAB82AE8315811581EB24A8FBEE2C
:10036A003400FE8B828E83740AF08B828E83A3F014
:10037A008B828E83A3A3F07BA87E008B018E027BE7
:10038A00007E0043033089828A838BF0EE1211BC0F
:10039A00D004D005D0078D06EE75F005A4FE8C03B7
:1003AA00EB2EFE3395E0FBEE2494FEEB3400FB903B
:1003BA0000D8E0FA8E828B83F00C020205EF242328
:1003CA00F582E43401F583E0FE9000DD7401F08EDD
:1003DA0082C007120EC7900001E4F5F0120FF9D09F
:0503EA00070F0201DF16
:1003F000120B9B120BC5120BB475DD0075D3007583
:10040000D5002275D30074FC55D24402F5D2900178
:1004100040E4F022A2DE229000D9E07003F58222AF
:100420007E007F00900140E060200EBE00010F9032
:100430000005C007C0061210AAD006D007C3EE946C
:1004400050EF94C340DE758200227F00BF08005049
:10045000278F057E0074402DFDE43EFEED240AFD4D
:10046000EE3400FEEF2441F582E43401F583E0FC34
:100470008D828E83F00F80D475D308900140740173
:10048000F053D2FC75820122AF82BF880040088FF2
:1004900006EE2478FE8042BF80004023900141E0B8
:1004A000FD8F04EC2480F5F005F07401800225E056
:1004B000D5F0FBFC4205900141EDF07E00801AEF83
:1004C00090147D93FE7003F58222EE30E70B9001CD
:1004D00041E04402FFF053067F900143E0FFB50680
:1004E00002805C900144E0FFB50602805290014515
:1004F000E0FFB506028048900146E0FFB5060280A5
:100500003E900147E0FFB506028034900148E0FFCD
:10051000B50602802A7F027D02ED2441FBE434010E
:10052000FC8B828C83E070088B828C83EEF08008D9
:100530000D8D07BD080040E1BF080475820022123E
:10054000041775820122AF82BF880040088F06EE33
:100550002478FE8043BF80004024900141E0FD8F5D
:1005600004EC2480F5F005F07401800225E0D5F05C
:10057000FBF4FC5205900141EDF07E00801AEF90F3
:10058000147D93FE7003F58222EE30E70B9001415B
:10059000E054FDFFF053067F7F02EE6016EF24412A
:1005A000FCE43401FD8C828D83E0B506068C828DDF
:1005B00083E4F00FBF080040E112041775820122A6
:1005C0007F00BF0800500FEF2441F582E43401F5AD
:1005D00083E4F00F80EC020417AF82C00712048896
:1005E000AE82D0078F82C006120546D0068E8222C8
:0705F00090000AE0F58222F1
:1005F800AFDBBF08028003020A21900007E0FE7FFC
:1006080000900006E0FD7C004FF513EC4EF5147FDA
:1006180000900001E0F515900149E4F0900000E039
:10062800FE54606027900000E0FE5306607D00BE27
:100638002005BD0002800BBE400DBD000A7FFF02F1
:100648000A237FFF020A237FFF020A23E51524F409
:100658005003020A1DE515240B83F582E5152410C5
:1006680083F583E473FF2D1DED1DF7851D042123FC
:100678002309080A080A07060A08080A0A90000354
:10068800E0FEBE01028013BE02028027BE03028084
:100698003BBE22030207570207799000DA74FDF087
:1006A8007414A3F090150FE493FD740193FE8D0765
:1006B80002077B9000DA7411F07415A3F090157F8F
:1006C800E493FD740193FE8D0702077B900002E01E
:1006D80070199000DA7481F07415A3F0901585E410
:1006E80093FD740193FE8D0702077B900002E0FEE4
:1006F800BE01189000DA74B5F07415A3F09015C314
:10070800E493FD740193FE8D078068900002E0FE7B
:10071800BE02189000DA749DF07415A3F09015B31A
:10072800E493FD740193FE8D078048900002E0FE7B
:10073800BE03189000DA7487F07415A3F090159B27
:10074800E493FD740193FE8D0780287FFF80249039
:100758000002E070189000DA743CF07415A3F09071
:10076800153AE493FD740193FE8D0780067FFF80A0
:10077800027FFFBFFF03020A238F057E00C3ED95AA
:1007880013EE951450048D138E14AD13AE14C3EDEF
:100798009408EE9400920040067B087C008004AB2D
:1007A80013AC148B077C00C3EC9F501F8C027B009A
:1007B8009000DAE0F8A3E0F9EC28F582E439F58353
:1007C800E493F98A828B83F00C80DC8F037C00ED44
:1007D800C39BFDEE9CFE8D138E149000DAE0FDA302
:1007E800E0FE9000DAEF2DF0E43EA3F0020A239039
:1007F8000002E0FE8E13751400020A239000D9E06F
:10080800900000F0AD13AE14C3ED9401EE940050C7
:1008180003020A237F01020A23900002E0FE9000EF
:10082800D9F0020A23900000E0541F702F900003B3
:10083800E0FD7E00900002E0FC7B004206EB4205F2
:10084800BE0114BD0011901518E493FE30E50302B3
:100858000A237FFF020A237FFF020A23900000E099
:10086800FE53061F7D00BE0277BD0074900004E0B1
:10087800FEBE0102805FBE02028049BE03028033D1
:10088800BE0402801DBE81028040BE8202802ABE54
:1008980083028014BE844474BC55DE4402F5DE0233
:1008A8000A2353DE73020A2374BC55D64402F5D6D4
:1008B800020A2353D673020A2374BC55D44402F5A2
:1008C800D4020A2353D473020A2374BC55D24402B7
:1008D800F5D2020A2353D273020A237FFF020A23A6
:1008E8007FFF020A23900000E0541F702F9000033E
:1008F800E0FD7E00900002E0FC7B004206EB420532
:10090800BE0114BD0011901518E493FE30E50302F2
:100918000A237FFF020A237FFF020A23900000E0D8
:10092800FE53061F7D00BE0205BD000280030209BA
:10093800FB900003E0FD7E00900002E0FC7B00429B
:1009480006EB4205EE4D60030209F7900005E0FD55
:100958007E00900004E0FC7B004206EB4205BE01ED
:1009680006BD00030209EBBE0205BD00028060BEA1
:100978000305BD00028044BE0405BD00028028BEF8
:100988008105BD00028052BE8205BD00028036BED0
:100998008305BD0002801ABE8451BD004E74BF5548
:1009A800DE4403F5DE8074747F55DE440CF5DE808A
:1009B8006A74BF55D64403F5D68060747F55D64413
:1009C8000CF5D6805674BF55D44403F5D4804C74C6
:1009D8007F55D4440CF5D4804274BF55D24403F5F6
:1009E800D28038747F55D2440CF5D27FFF802C7F9B
:1009F800FF80287FFF8024900000E4F0900001F041
:100A0800AD13AE14C3ED9402EE940040047F02804F
:100A18000AAF1380067FFF80027FFFBFFF077515AF
:100A2800FF75DCCF22EF24F740068FDD75DCC0228E
:100A380075DD0075DCC0227405B51502807074067A
:100A4800B515028003020AC4AE13AF14C3EE9408AE
:100A5800EF9400920140067C087D008004AC13AD41
:100A6800147D00C3ED9C501F8D027B009000DAE0DE
:100A7800F8A3E0F9ED28F582E439F583E493F98ADF
:100A8800828B83F00D80DC8C037D00EEC39BFEEF30
:100A98009DFF8E138F149000DAE0FEA3E0FF900014
:100AA800DAEC2EF0E43FA3F08CDD63DC4022E5E3D2
:100AB8005480FFE5134FF5E375DC022275DD007500
:100AC800DC022275DD0043DC022220D903020B7709
:100AD800E5D9540FFFADD95305307E00BD0005BEE2
:100AE8000002801BBD1005BE00028035BD2005BE7A
:100AF80000028042BD3005BE00028059020B75EF2E
:100B080024FB5003020B75EF2F900B1573800880A0
:100B18000B805A80588056120ACB805112041480D8
:100B28004CEF24FB4047EF2F900B3473803F803D00
:100B3800803B80398037EF24FB4032EF2F900B4900
:100B4800738008800B802680248022120A3F801D33
:100B58001204038018EF24FB4013EF2F900B6873E7
:100B6800800880098007800580031205F8C2D93003
:100B7800D81475DC0275D21275E300C2DAC2D9C284
:100B8800D89000D9E4F010DA0122E5DA20E2037502
:100B9800D8FF2275E20053E27F43E22975E3005350
:100BA800E2BF53D1FB75D18043D1012243E1044315
:100BB800E10243E10143D81FD2EAD2AF227E0A7F85
:100BC800008EEE8FEF75D2127E007F008EEC8FEDD7
:070BD80075EAC075DC022282
:100BE000C021C0E0C0F0C082C083C007C006C005FD
:100BF000C004C003C002C001C000C0D075D0001244
:100C00000AD2D0D0D000D001D002D003D004D00579
:100C1000D006D007D083D082D0F0D0E0D02132C02F
:100C200021C0E0C0F0C082C083C007C006C005C0BC
:100C300004C003C002C001C000C0D075D00030980D
:100C400005121274C2983099051212B4C299D0D00C
:100C5000D000D001D002D003D004D005D006D007F8
:100C6000D083D082D0F0D0E0D02132C021C0E0C00B
:100C7000F0C082C083C007C006C005C004C003C066
:100C800002C001C000C0D075D00030C005121302F0
:100C9000C2C030C105121342C2C1D0D0D000D001B1
:100CA000D002D003D004D005D006D007D083D082A4
:100CB000D0F0D0E0D02132C021C0E0C0F0C082C06E
:100CC00083C007C006C005C004C003C002C001C085
:100CD00000C0D075D00090014CE0FEA3E0FFC0073B
:100CE000C0068E828F83120069D006D007D0D0D084
:100CF00000D001D002D003D004D005D006D007D058
:100D000083D082D0F0D0E0D02132C021C0E0C0F04A
:100D1000C082C083C007C006C005C004C003C002B3
:100D2000C001C000C0D075D00090014EE0FEA3E02D
:100D3000FFC007C0068E828F83120069D006D007DD
:100D4000D0D0D000D001D002D003D004D005D0063E
:100D5000D007D083D082D0F0D0E0D02132C021C0E3
:100D6000E0C0F0C082C083C007C006C005C004C098
:100D700003C002C001C000C0D075D00090014AE09D
:100D8000FEA3E04E600E90014AE0F8A3E0F58388F0
:100D900082120069D0D0D000D001D002D003D0049C
:100DA000D005D006D007D083D082D0F0D0E0D021BB
:100DB000321210E51200DA1201DD80FB758200228A
:100DC000E582FF90161593FEEF9015ED93FF7001ED
:100DD000229000DCE0FD701BBF0209EEF4FC529291
:100DE000EC529322BF0402800122EEF4FC5296ECF6
:100DF000529722BD0214BF0207EE4292EE429322A6
:100E0000BF0439EE4296EE429722BD0116BF02089A
:100E1000EEF45292EE429322BF0421EEF45296EE8B
:100E2000429722BD0316BF0208EE4292EEF452939F
:100E300022BF0408EE4296EEF4FE529722AF82BF24
:100E40000102800FBF02028013BF03028017BF049C
:100E500025801BE5C620E21E539DFB22E5C620E34C
:100E600015539DF722E5C630E20C539DFB22E5C6E3
:100E700030E303539DF722E582FF9015C593FEEF03
:100E800090161593FDEF9015ED93FF7003F58222F8
:100E9000EE600D8E82C007C005120E3DD005D00752
:100EA0007E00BF0202800ABF03028009BF040C80DB
:100EB00008AE908006AEA08002AEB0ED5E60047514
:100EC00082012275820022E582FF9015C593FEEF14
:100ED00090161593FDEF9015ED93FFEE600D8E8249
:100EE000C007C005120E3DD005D007A2AFE433FE07
:100EF000C2AFBF0202800ABF03028017BF04368060
:100F0000249000DDE07007EDF4FF52908027ED4261
:100F10009080229000DDE07007EDF4FF52A0801574
:100F2000ED42A080109000DDE07007EDF4FF52B0BC
:0B0F30008003ED42B0EE6002D2AF2261
:100F3C00C0D075D00808B8000D09B900090ABA006C
:100F4C00050BBB00010CD0D032A2AFC2AFA808A9D0
:100F5C0009AA0AAB0BAC8A8588F092AF30F51274F3
:100F6C00012C600D08B8000909B900050ABA000186
:100F7C000BC3EC9406FCECC313FC75F07DE8A4F8F1
:100F8C00ADF075F07DE9A42DF9E435F0FD75F07D3B
:100F9C00EAA42DFAE435F0FD75F07DEBA42DFB7D74
:100FAC0000EC28F582E93DF583EA3DF5F0EB3D22B6
:100FBC00A2AFC2AFA808A909AA0AAB0BAC0C92AF9E
:100FCC0075F020E8A4A8F075F020E9A428F582A813
:100FDC00F075F020EAA428F583A8F075F020EBA4B6
:100FEC0028F9A8F075F020ECA42889F0228582223B
:100FFC0085832385F024F525120F5585822685835C
:10100C002785F028F529E52245234524452570013F
:10101C0022A822A923AA24AB2585262A85272B853D
:10102C00282C85292DE8494A4B60DBC003C002C03F
:10103C0001C000120F55AC82AD83AEF0FFD000D0D2
:10104C0001D002D003ECC3952AFCED952BFDEE9557
:10105C002CFEEF952DFFC3EC94E8ED9403EE940079
:10106C00EF940040A118B8FF0919B9FF051ABAFF8F
:10107C00011B882289238A248B2574E8252AF52ACA
:10108C007403352BF52BE4352CF52CE4352DF52D8F
:10109C00852A26852B27852C28852D298087AE82AD
:1010AC00AF83C374019EE49F40022200C374029E6E
:1010BC00FE74009FFF00BE0005BF0002002200006E
:1010CC000000000000000000000000000000000E06
:1010DC00BE00EB0FBF00ED002275A15575A1AA74DF
:1010EC00F855B94406F5B975A1009013881210AAE9
:1010FC00759E5D759D0074F055894402F58953C940
:0D110C00EF758C06C28DD2A9D28CD2AF2215
:10111A00C016858116C082C083E5812405F581AF9A
:10112A00160FE5162403F8A607087600087640E5A8
:10113A001624FCFD7E007F40E5162406F9A8160851
:10114A008604E51624FCF886038CF0EBA4F709A7BD
:10115A00F0E516240604F98704A816088603740124
:10116A002DFAE43EFE8A828E838FF01212588BF09B
:10117A00A4FBE5162403F8740126FDE40836FE08EC
:10118A0086078D828E838FF0121258FDE51624FC95
:10119A00F886078DF0EFA42B2CF7E5162406F987BD
:0F11AA00060987078E828F83851681D016223221
:0111BA003202
:1011BC00ABF0A2AFE433FEC2AFE0A37A0833D29512
:1011CC004002C2957905D9FEC295DAF1DBEBEE60EF
:0411DC0002D2AF226A
:1011E00022AF82BF0200503EEF75F002A4244CFDF6
:1011F000740135F0FE9000DEE0FBA3E0FC8D828EF2
:1012000083EBF0ECA3F0BF00028005BF0118800B58
:101210009000E0E024FF9288D2A8229000E0E0FF56
:1012200024FF928AD2AA22AF82BF02005028BF00B8
:10123000028005BF01088004C2A88002C2AAEF751F
:10124000F002A4244CFE740135F0FF8E828F83746B
:07125000E0F07411A3F0228D
:1012580020F71430F6148883A88220F507E6A883BF
:0C12680075830022E280F7E49322E0226C
:10127400900150E0FF7E000FBF00010E7410C0E02B
:10128400E4C0E08F828E83121390AE8215811581A3
:10129400900151E0FFEEB5070122900150E024E1F6
:1012A400F582E43400F583E599F0900150EEF022E4
:1012B40030024A900152E0FF900153E0FEEFB50680
:1012C40005A202C20222900153E024F1F582E43423
:1012D40000F583E0F599900153E0FF7E000FBF0015
:1012E400010E7410C0E0E4C0E08F828E831213906C
:0E12F400AE82AF8315811581900153EEF0227A
:10130200900154E0FF7E000FBF00010E7410C0E098
:10131200E4C0E08F828E83121390AE821581158114
:10132200900155E0FFEEB5070122900154E024013F
:10133200F582E43401F583E5C1F0900154EEF02228
:1013420030034A900156E0FF900157E0FEEFB506E8
:1013520005A203C20322900157E02411F582E4346E
:1013620001F583E0F5C1900157E0FF7E000FBF0059
:10137200010E7410C0E0E4C0E08F828E83121390DD
:0E138200AE82AF8315811581900157EEF022E7
:10139000C016858116AE82E583FF33E433FD600914
:1013A000C3E49EFBE49FFC80048E038F04E51624B7
:1013B000FCF808E630E70FE51624FCF8C3E496FED7
:1013C00008E496FF800AE51624FCF88606088607DE
:1013D000C005C006C0078B828C831213FEAE82AF9D
:1013E0008315811581D005ED600DC3E49EFCE49F5B
:1013F000FD8C828D8380048E828F83D01622C0164E
:10140000858116AE82AF837D007C00E51624FCF852
:1014100008E6235401FB702FE51624FCF8E626F6B7
:1014200008E633F6E51624FCF8C3EE96EF0896506E
:1014300011E51624FCF808E618C313C613C608F60F
:1014400080050C8C0580C4E51624FCF8C3EE96EFED
:101450000896400DE51624FCF8EEC396FEEF0896BC
:10146000FFE51624FCF808E618C313C613C608F6F1
:0D1470008D041DEC70D18E828F83D016226A
:10147D0000000000000000002A2B280000000000E2
:10148D00000000000000000000000000000000004F
:10149D002C9EB4A0A1A2A434A6A7A5AE362D373894
:1014AD00271E1F20212223242526B333B62EB7B89D
:1014BD009F8485868788898A8B8C8D8E8F9091925B
:1014CD00939495969798999A9B9C9D2F3130A3ADA7
:1014DD00350405060708090A0B0C0D0E0F10111225
:1014ED00131415161718191A1B1C1DAFB1B0B50022
:1014FD00120110010000000809125DC50001010272
:10150D000301120009022900010100806409040091
:10151D0000020301010009211001210122430007EE
:10152D0005010308000A0705810308000A430005A9
:10153D00010906A101050719E029E7150025019507
:10154D0008750181029501750881039506750815C9
:10155D000025FF0507190029E78100050819012954
:10156D0005150025019505750191029501750391EC
:10157D0003C02900040309040400140343004800B8
:10158D0035003500780020006B0062006400140007
:10159D0016034300480035003500780064007500DF
:1015AD0069006E006F0016000E03440065007100A7
:0815BD0069006E0067000E00DA
:1015C5000000000000000000000000000000000115
:1015D50000000000000000000000000000000304FF
:1015E50000000200000000000101010101010101EC
:1015F50000000202020202020202000003030303CA
:1016050003030303000004040404040404040000A9
:101615000102040810204080000001020408102087
:1016250040800000010204081020408000000102F3
:101635000408102040800000FFFFFFFFFFFFFFFFB1
:10164500FFFFFF00FFFF0102FFFFFFFFFFFFFFFF9F
:10165500FFFFFFFFFFFFFFFF03FFFFFFFFFFFFFF91
:10166500B10D2110111F0B220E201E6162636465EE
:0F167500666768696A6B6C6D6E6F707172737403
:091684000000000000000000005D
:01168D00005C
:02168E0000005A
:04169000E011E01174
:041694000000000052
:04169800000000004E
:00000001FF
